:100000000C9434000C94A4000C9451000C945100F6
:100010000C9451000C9451000C9451000C9451001C
:100020000C9451000C9451000C9451000C948100DC
:100030000C9451000C9451000C9451000C945100FC
:100040000C9451000C9451000C9451000C945100EC
:100050000C9451000C9451000C9451000C945100DC
:100060000C9451000C94510011241FBECFEFD8E026
:10007000DEBFCDBF11E0A0E0B1E0EAE5F6E002C0EE
:1000800005900D92A63BB107D9F721E0A6EBB1E0B0
:1000900001C01D92AB3BB207E1F70E94B3010C9483
:1000A0002B030C94000098B1937C98B980FD429A80
:1000B00081FD439A82FD449A83FD459A419A85E0E9
:1000C0008A95F1F70000419887EC90E00197F1F7ED
:1000D00000C000000895CF93C82F409882958F707C
:1000E0000E9453008C2F8F700E945300C150C23069
:1000F00030F48FE39FE10197F1F700C00000CF914A
:1001000008951F921FB61F9211248F939F93AF9350
:10011000BF938091B7019091B801A091B901B091BE
:10012000BA010196A11DB11D8093B7019093B8014A
:10013000A093B901B093BA01BF91AF919F918F91F4
:100140001F901FBE1F9018958F9381E08093B6017A
:10015000E8988F9118952FEF80E792E0215080402A
:100160009040E1F700C000004098419883E00E9471
:1001700053008FE19EE40197F1F700C0000083E097
:100180000E94530087E592E00197F1F700C000005C
:1001900083E00E94530087E592E00197F1F700C0E9
:1001A000000082E00E94530087E592E00197F1F79A
:1001B00000C0000088E20E946B008CE00E946B008F
:1001C00081E00E946B0086E00C946B0081E00C944F
:1001D0006B008111605C862F80680C946B000F931C
:1001E0001F93CF93FC01C081CC2391F08C010F5F52
:1001F0001F4F409A8C2F82958F700E9453008C2F36
:100200008F700E945300F801C1918F01C111F1CF8D
:10021000CF911F910F91089584B1836084B985B106
:100220008C7F85B952985A9A87B18F6387B988B104
:10023000807C88B90E94AB0010928000E1E8F0E079
:1002400010821092850010928400808188608083E3
:1002500089EF90E09093890080938800808183608B
:100260008083EFE6F0E0808182608083E9E6F0E061
:1002700080818C7F8083E09AE89A78940895289A08
:1002800008952898089585B191E0892785B9089542
:10029000299A08952998089589B182FB882780F9C1
:1002A00091E089270895E09AE89A0895E8980895DA
:1002B000E09AE89A83B7817F846083BF83B78160C7
:1002C00083BF889583B78E7F83BFE8980895809118
:1002D000B60108951092B6010895CF93DF9300D030
:1002E00000D0CDB7DEB7F8948091B7019091B801F6
:1002F000A091B901B091BA0189839A83AB83BC8381
:10030000789469817A818B819C810F900F900F90F6
:100310000F90DF91CF910895CF92DF92EF92FF92ED
:100320000F931F936B017C01022F132F9A01F894F6
:100330004091B7015091B8016091B9017091BA0133
:1003400078944C195D096E097F0981E040175107C7
:100350006207730708F480E01F910F91FF90EF9000
:10036000DF90CF900895CDB7DEB728970FB6F894F9
:10037000DEBF0FBECDBF0E940C010E94E60060E010
:1003800080E00E94E9008EE191E00E94EF0060E0D1
:1003900081E00E94E9008DE291E00E94EF000E945E
:1003A0003F010E944A010FEF13ED20E3015010407E
:1003B0002040E1F700C000000E946D0169837A834C
:1003C0008B839C8388EEC82E83E0D82EE12CF12C01
:1003D0000E943F010E946D01462F572FBC01DC0196
:1003E000CA0109811A812B813C81801B910BA20BD0
:1003F000B30B88389341A105B10508F4BCC00E9435
:100400004C018111A0C028E833E140E050E069814F
:100410007A818B819C810E948C01882309F489C098
:100420000E94E60060E080E00E94E90084E591E03F
:100430000E94EF0060E081E00E94E90085E691E023
:100440000E94EF003FEF8DE399E4315080409040EF
:10045000E1F700C000000E94E60060E080E00E943A
:10046000E90086E791E00E94EF0060E081E00E94F1
:10047000E90086E891E00E94EF000E9441010E949D
:100480004A010E946A010E9458010E946701882364
:1004900009F44FC00E943F010E9448010FEF12E58E
:1004A00027E0015010402040E1F700C000000E940A
:1004B0004A010E94E60060E080E00E94E90087E9CE
:1004C00091E00E94EF0060E081E00E94E90085EA8F
:1004D00091E00E94EF0006C08FE39CE90197F1F7DD
:1004E00000C000000E944C018111F6CF0E946A01F9
:1004F0009FEF09E618E1915000401040E1F700C07D
:1005000000000E94E60060E080E00E94E9008EE1C9
:1005100091E00E94EF0060E081E00E94E9008DE23E
:1005200091E00E94EF000E946D0169837A838B83C2
:100530009C832FEF31EE84E0215030408040E1F782
:1005400000C0000045CF0E946D0169837A838B83D0
:100550009C8360E081E00E94E90084E491E00E94D5
:10056000EF000FEF13EC29E0015010402040E1F7BD
:1005700000C0000048CF89819A81AB81BC81885737
:100580009C4EAF4FBF4F8C019D01041B150B260BDA
:10059000370B0D831E832F833887C901B801A7014C
:1005A00096010E94090349015A011FEF811A910A1D
:1005B000A10AB10A60E081E00E94E9008BE391E0CA
:1005C0000E94EF008CE091E025E082169104A104E6
:1005D000B104B1F086E091E034E083169104A10407
:1005E000B10471F083E088169104A104B10459F0BC
:1005F00092E089169104A104B10441F088E191E0F0
:100600000E94EF00FCCE82E191E0FACF80E091E021
:10061000F7CFA1E21A2EAA1BBB1BFD010DC0AA1F1A
:10062000BB1FEE1FFF1FA217B307E407F50720F05B
:10063000A21BB30BE40BF50B661F771F881F991FD6
:100640001A9469F760957095809590959B01AC011F
:0A065000BD01CF010895F894FFCF1B
:10065A0032732E2E2E0034732E2E2E0035732E2E2C
:10066A002E0033732E2E2E0031732E2E2E0041545F
:10067A006D65676133323850204D435500537461BC
:10068A0074653A204143544956450041637469767A
:10069A00653A2000427574746F6E205072657373E8
:1006AA0065642100496E61637469766974792054BE
:1006BA00696D656400456E746572696E6720536C76
:1006CA006565702E2E004D43553A20504F574552BE
:1006DA002D444F574E005072657373205357312083
:1006EA0028494E54302900574F4B45205550212058
:1006FA00494E54300052656C6561736520427574C9
:06070A00746F6E2E2E003C
:00000001FF
